:020000040800F2
:1000000068530020792E0108312F0108352F01088F
:10001000392F01083D2F0108412F01080000000081
:10002000000000000000000000000000452F010853
:10003000492F0108000000004D2F01088926010802
:10004000512F0108552F0108592F01085D2F010874
:10005000612F0108652F0108692F01086D2F010824
:10006000712F0108752F0108E9260108792F010871
:100070007D2F0108812F0108852F0108892F010894
:100080008D2F0108912F0108952F01080000000015
:10009000000000000000000000000000992F01088F
:1000A000952601089D2F0108A12F0108A52F010801
:1000B0009F260108A92F0108AD2F0108B12F0108C3
:1000C000B52F0108B92F0108BD2F0108A926010885
:1000D000B3260108BD260108C12F01080000000059
:1000E000C52F0108C92F0108CD2F0108000000000D
:1000F000000000000000000000000000D12F0108F7
:1001000000000000D52F0108D92F0108DD2F0108BC
:1001100000000000000000000000000000000000DF
:10012000E12F0108E52F0108E92F0108ED2F010853
:10013000F12F010800000000000000000000000096
:10014000000000000000000000000000C7260108B9
:10015000F52F0108F92F0108FD2F010801300108D2
:10016000053001080930010800000000000000000F
:10017000000000000000000000000000000000007F
:10018000000000000D300108000000000000000029
:1001900011300108F8B50400A7683D682E682000FA
:1001A00000F03DFD012801D101202FE004212000B5
:1001B00002F062FA002801D1012027E0402120004E
:1001C00001F087FF002801D101201FE0002120005D
:1001D00002F0C2F9002801D1012017E0DFF8A809D8
:1001E00068600021200001F0FCFF002801D10120FF
:1001F0000CE00021200000F0D7F9012801D10120F6
:1002000004E001203070012060710020F2BDF8B5DB
:100210000400A7683D682E68200000F000FD01285A
:1002200001D101203EE0200001F086F8012801D133
:10023000012037E0200001F051FC012801D101200C
:1002400030E0200001F0FAF8012801D1012029E076
:10025000200001F0A3FA012801D1012022E02000B2
:1002600001F061FB012801D101201BE0200001F019
:1002700084F9012801D1012014E0200001F0E9F9FE
:10028000012801D101200DE0200000F022F8012812
:1002900001D1012006E000206860002030700020BD
:1002A00060710020F2BD70B50400A6683568A079C1
:1002B000012801D100200BE095ED010A200000F09B
:1002C00077FD012801D1012002E00120A07100206A
:1002D00070BD70B50400A6683568A079002801D10A
:1002E000002012E0291D200000F0A2F8012801D111
:1002F00001200AE00021200001F073FF002801D155
:10030000012002E00020A071002070BD38B504007B
:100310000D002900200000F075FC32BD10B504006E
:10032000200000F07CFC10BD3EB504000D00002054
:10033000009001A9200000F0BFFC012801D101209C
:1003400032E06946200000F046F8012801D1012082
:100350002AE0BDF9040000EE100AB8EEC00ADDED97
:10036000000A20EE200ABDEEC00A85ED000ABDF9A4
:10037000060000EE100AB8EEC00ADDED000A20EE1D
:10038000200ABDEEC00A85ED010ABDF9080000EEA5
:10039000100AB8EEC00ADDED000A20EE200ABDEE1C
:1003A000C00A85ED020A00203EBD3EB504000D00E6
:1003B0006946200000F080FC012801D1012009E0FD
:1003C000BDF800002880BDF802006880BDF8040078
:1003D000A88000203EBD38B504000D00694620000D
:1003E00001F0BFFE002801D1012020E09DF80000AF
:1003F000002806D0042810D0082806D00C2808D0E1
:100400000FE0DFF8780A286010E0DFF8740A28604F
:100410000CE0DFF8700A286008E0DFF86C0A28605A
:1004200004E0DFF8680A2860012000E0002032BD07
:1004300038B504000D006946200001F0F6FE0028E2
:1004400001D1012049E09DF80000002814D01028B7
:1004500015D0202817D0302819D040281BD050287C
:100460001DD060281FD0702821D0802823D090284C
:1004700025D0A02827D02AE0002028602CE0DFF833
:10048000100A286028E0DFF80C0A286024E0DFF872
:10049000080A286020E0DFF8F00628601CE0DFF89A
:1004A000FC09286018E0DFF8F809286014E0DFF89C
:1004B000BC0A286010E0DFF8B80A28600CE0DFF81A
:1004C000B40A286008E0DFF8B00A286004E0DFF82A
:1004D000BC092860012000E0002032BD38B50400CE
:1004E0000D00A079012808D12900C9B2200000F030
:1004F0000DFC01280AD1012009E02900C9B2200021
:1005000000F029FC012801D1012000E0002032BDCB
:1005100010B52DED028B0400B0EE408AA0790128C1
:1005200008D1B0EE480A200000F042FC01280AD1B0
:10053000012009E0B0EE480A200000F0B3FC0128D9
:1005400001D1012000E00020BDEC028B10BD38B5C8
:1005500004000D006946200001F003FE002801D1CF
:10056000012020E09DF80000002806D0042810D0CB
:10057000082806D00C2808D00FE05FF080402860E3
:1005800010E05FF0814028600CE05FF0824028605E
:1005900008E05FF08340286004E0DFF8F00828609E
:1005A000012000E0002032BD70B504000D002800DD
:1005B000C0B2002804D0022804D0042804D005E0EA
:1005C000002605E0082603E00C2601E0012009E0F2
:1005D0003100C9B2200001F0A0FD002801D10120A6
:1005E00000E0002070BD000038B52DED028B040046
:1005F000B0EE408A9FED500AB4EE408AF1EE10FA58
:1006000001D5002512E09FED4D0AB4EE408AF1EECF
:1006100010FA01D5082509E09FED490AB4EE408A99
:10062000F1EE10FA01D50C2500E004252900C9B22D
:10063000200001F072FD002801D1012000E000201F
:10064000BDEC028B32BD70B504000D001600320007
:100650002900C9B2200000F0F8FA012801D10120D8
:1006600000E0002070BD70B504000D0016003200DF
:10067000D2B22900C9B2200000F0F8FA012801D155
:10068000012000E0002070BD38B504000D0069466F
:10069000200002F04EFA002801D101200EE09DF862
:1006A0000000002804D0012805D10120287004E0B2
:1006B0000020287001E0012000E0002032BDF8B5E4
:1006C0000400A7683D682E68200000F0A8FA012801
:1006D00001D101202FE00421200001F0CDFF0028EE
:1006E00001D1012027E04021200001F0F2FC002888
:1006F00001D101201FE00021200001F02DFF002882
:1007000001D1012017E0DFF8540A686000212000C1
:1007100001F002FE002801D101200CE0042120009C
:1007200000F0CDF9012801D1012004E00120707012
:10073000012060710020F2BD0100004001008040F6
:1007400001000041F8B50400A7683D682E6820004C
:1007500000F065FA012801D101200DE0200000F031
:1007600022F8012801D1012006E000206860002065
:100770007070002060710020F2BD70B50400A668A2
:100780003568A079012801D100200BE095ED010A20
:10079000200000F07DFC012801D1012002E00120B1
:1007A000A071002070BD70B50400A6683568A079FE
:1007B000002801D1002012E0291D200000F0B3F82C
:1007C000012801D101200AE00021200001F0A4FD50
:1007D000002801D1012002E00020A071002070BD9E
:1007E00038B504000D002900200000F00BFA32BDDE
:1007F00010B50400200000F012FA10BD3EB5040050
:100800000D000020009001A9200000F0BFFB01288E
:1008100001D1012032E06946200000F046F80128AD
:1008200001D101202AE0BDF9040000EE100AB8EE63
:10083000C00ADDED000A20EE200ABDEEC00A85EDFB
:10084000000ABDF9060000EE100AB8EEC00ADDEDA0
:10085000000A20EE200ABDEEC00A85ED010ABDF9AE
:10086000080000EE100AB8EEC00ADDED000A20EE26
:10087000200ABDEEC00A85ED020A00203EBD3EB54D
:1008800004000D006946200000F080FB012801D122
:10089000012009E0BDF800002880BDF80200688052
:1008A000BDF80400A88000203EBD38B504000D004E
:1008B0000DF10101200001F08AFD002801D1012085
:1008C00030E09DF80100022803D1DFF8240A2860F7
:1008D00027E06946200001F0DFFC002801D101205B
:1008E00020E09DF80000002806D0042808D0082841
:1008F0000AD00C280CD00FE0DFF8F809286010E0CF
:10090000DFF8F40928600CE0DFF8F009286008E05F
:10091000DFF8EC09286004E0DFF8700528600120AA
:1009200000E0002032BD38B504000D00694620000B
:1009300001F016FD002801D1012048E09DF80000DB
:10094000002814D0102815D0202817D0302819D00E
:1009500040281BD050281CD060281ED0702820D0E2
:10096000802822D0902824D0A02826D029E000205A
:1009700028602BE0DFF81805286027E0DFF8140571
:10098000286023E0DFF8100528601FE07E4828601B
:100990001CE0DFF80805286018E0DFF8040528608F
:1009A00014E0DFF8C805286010E0DFF8C40528600F
:1009B0000CE0DFF8C005286008E0DFF8BC0528601F
:1009C00004E0DFF8C8042860012000E0002032BD08
:1009D00038B504000D00A079012808D12900C9B25A
:1009E000200000F0FDFA01280AD1012009E02900C9
:1009F000C9B2200000F019FB012801D1012000E05C
:100A0000002032BD10B52DED028B0400B0EE408AFF
:100A1000A079012808D1B0EE480A200000F038FB88
:100A200001280AD1012009E0B0EE480A200000F0B8
:100A30009BFB012801D1012000E00020BDEC028BCE
:100A400010BD38B504000D006946200001F0BFFC60
:100A5000002801D1012031E00DF10101200001F059
:100A60001BFC002801D1012028E09DF8000002288D
:100A700003D1DFF8B00828601FE09DF801000028CE
:100A800006D0042808D008280AD00C280CD00FE083
:100A9000DFF89408286010E0DFF8900828600CE088
:100AA000DFF88C08286008E0DFF88808286004E098
:100AB000DFF8D8032860012000E0002032BD70B5C7
:100AC00004000D002800C0B2002804D0022804D081
:100AD000042804D005E0002605E0042603E00C26E7
:100AE00001E0012009E03100C9B2200001F0B0FBB3
:100AF000002801D1012000E0002070BD38B52DEDA7
:100B0000028B0400B0EE408A9FEDA50AB4EE408A45
:100B1000F1EE10FA07D50221200001F034FC002884
:100B20002ED101202DE09FED9F0AB4EE408AF1EE18
:100B300010FA01D5002512E09FED9B0AB4EE408A21
:100B4000F1EE10FA01D5042509E09FED980AB4EE04
:100B5000408AF1EE10FA01D5082500E00C250021AD
:100B6000200001F010FC002801D1012009E029003B
:100B7000C9B2200001F06CFB002801D1012000E087
:100B80000020BDEC028B32BD0000D04270B50400E5
:100B90000D00160032002900C9B2200000F055F8FF
:100BA000012801D1012000E0002070BD70B50400D3
:100BB0000D0016003200D2B22900C9B2200000F0A8
:100BC00055F8012801D1012000E0002070BD38B5A2
:100BD00004000D006946200001F0BEFF002801D18D
:100BE00001200EE09DF80000002804D0022805D165
:100BF0000120287004E00020287001E0012000E0BE
:100C0000002032BD38B504000D002900200001F09D
:100C10004DFA002801D1012000E0002032BD1CB5B2
:100C2000040000208DF8000069462000FFF7EAFF6D
:100C3000012801D1012007E09DF8000021788842B9
:100C400001D0012000E0002016BD70B504000D00A9
:100C50001600012332002900C9B2200001F000FA79
:100C6000002801D1012000E0002070BD34B504004F
:100C70000D0001236A462900C9B2200001F003FAE1
:100C8000002801D1012000E0002032BD38B5040069
:100C90000D002800C0B20028012807D82900C9B2D9
:100CA000200002F019F8002804D101E0012002E040
:100CB000012000E0002032BD3EB504000D00684672
:100CC00000210022C0E900126946200001F05CFA10
:100CD000002801D1012018E09DF8010000029DF8D4
:100CE000001050FA81F028809DF8030000029DF862
:100CF000021050FA81F068809DF8050000029DF80E
:100D0000041050FA81F0A88000203EBD70B50400A8
:100D10000D002800C0B2002806D0022808D005D354
:100D2000042809D006D309E0102609E0102607E0C0
:100D3000202605E0302603E0402601E0012009E0FE
:100D40003100C9B2200001F04CFA002801D1012085
:100D500000E0002070BD10B4020094682368080011
:100D6000C0B2002806D002280AD006D304280DD02D
:100D700009D30FE0464858600EE0454858600BE044
:100D80004448586008E04448586005E0DFF87805BA
:100D9000586001E0012000E0002010BC7047000016
:100DA0000100FA42010075430100FA4301007A4450
:100DB00038B52DED028B0400B0EE408A9FED6F0A2E
:100DC000B4EE408AF1EE10FA01D5102548E09FED0F
:100DD0006C0AB4EE408AF1EE10FA01D520253FE00E
:100DE0009FED680AB4EE408AF1EE10FA01D5302585
:100DF00036E09FED650AB4EE408AF1EE10FA01D5B7
:100E000040252DE09FED9C0AB4EE408AF1EE10FAE9
:100E100001D5502524E09FED990AB4EE408AF1EE09
:100E200010FA01D560251BE09FED950AB4EE408ACB
:100E3000F1EE10FA01D5702512E09FED920AB4EEA2
:100E4000408AF1EE10FA01D5802509E09FED8E0A67
:100E5000B4EE408AF1EE10FA01D5902500E0A0250D
:100E60002900C9B2200001F0BCF9002801D10120FD
:100E700000E00020BDEC028B32BD000023DB793D99
:100E800023DBF93D23DB793E23DBF93E000080BF05
:100E9000000050410000D04100005042000050438B
:100EA0000000D04301008B681A68DFED340AB4EE0D
:100EB000600AF1EE10FA02D5F2EE0A0A51E0DFED17
:100EC000300AB4EE600AF1EE10FA02D5F3EE0A0A27
:100ED00047E0DFED2C0AB4EE600AF1EE10FA02D51D
:100EE000DFED6A0A3DE0DFED280AB4EE600AF1EEBC
:100EF00010FA02D5DFED990A33E0DFED5F0AB4EEB8
:100F0000600AF1EE10FA02D5DFED950A29E0DFED77
:100F10005B0AB4EE600AF1EE10FA02D5DFED910A39
:100F20001FE0DFED570AB4EE600AF1EE10FA02D5C9
:100F3000DFED0E0A15E0DFED530AB4EE600AF1EEC4
:100F400010FA02D5DFED0A0A0BE0DFED4F0AB4EE2E
:100F5000600AF1EE10FA02D5DFED060A01E0DFEDDE
:100F6000060AC2ED010A002070470000004050440C
:100F70000080CF44002050450020D0450100504162
:100F80000100D041010050420100D0423EB50400B2
:100F90000D00684600210022C0E9001269462000C9
:100FA00001F08DF9002801D1012018E09DF8010021
:100FB00000029DF8001050FA81F028809DF803008F
:100FC00000029DF8021050FA81F068809DF805003B
:100FD00000029DF8041050FA81F0A88000203EBD68
:100FE00070B504000D002800C0B2002806D0022809
:100FF00008D005D3042809D006D309E0102609E05B
:10100000102607E0202605E0302603E0402601E018
:10101000012009E03100C9B2200001F07DF900286B
:1010200001D1012000E0002070BD10B402009468DE
:1010300023680800C0B2002806D002280CD007D3CD
:10104000042810D00CD311E0DFF8880A58600FE0B4
:10105000DFF8800A58600BE0DFF87C0A586007E090
:101060000A48586004E0A848586001E0012000E008
:10107000002010BC70470000010050430100D04325
:10108000014050440180CF440120504500005042AF
:1010900038B52DED028B0400B0EE408A9FED8B0A2F
:1010A000B4EE408AF1EE10FA01D5102548E09FED2C
:1010B000880AB4EE408AF1EE10FA01D520253FE00F
:1010C0009FED840AB4EE408AF1EE10FA01D5302586
:1010D00036E09FED810AB4EE408AF1EE10FA01D5B8
:1010E00040252DE09FED7D0AB4EE408AF1EE10FA26
:1010F00001D5502524E09FED7A0AB4EE408AF1EE46
:1011000010FA01D560251BE09FED760AB4EE408A07
:10111000F1EE10FA01D5702512E09FED730AB4EEDE
:10112000408AF1EE10FA01D5802509E09FED6F0AA3
:10113000B4EE408AF1EE10FA01D5902500E0A0252A
:101140002900C9B2200001F0E7F8002801D10120F0
:1011500000E00020BDEC028B32BD00000000D04258
:10116000000050430000D04301008B681A68DFED97
:10117000570AB4EE600AF1EE10FA02D5F2EE0A0A4E
:1011800051E0DFED530AB4EE600AF1EE10FA02D539
:10119000F3EE0A0A47E0DFED4F0AB4EE600AF1EE23
:1011A00010FA02D5DFED570A3DE0DFED4B0AB4EE51
:1011B000600AF1EE10FA02D5DFED530A33E0DFEDFD
:1011C000470AB4EE600AF1EE10FA02D5DFED4F0ADD
:1011D00029E0DFED430AB4EE600AF1EE10FA02D521
:1011E000DFED4B0A1FE0DFED3F0AB4EE600AF1EEDF
:1011F00010FA02D5DFED470A15E0DFED3B0AB4EE49
:10120000600AF1EE10FA02D5DFED430A0BE0DFEDE4
:10121000370AB4EE600AF1EE10FA02D5DFED3F0AAC
:1012200001E0DFED3F0AC2ED010A00207047000037
:1012300010B504009FED360A2000FFF769F9012878
:1012400001D1012040E00021200000F066FF0028CD
:1012500001D1012038E00621200001F08EFF002896
:1012600001D1012030E00021200001F03BFF0028E7
:1012700001D1012028E00021200001F00FFF00280B
:1012800001D1012020E00021200001F0E1FE002832
:1012900001D1012018E00321200001F04AFF0028BD
:1012A00001D1012010E08021200001F0A5FD0028DF
:1012B00001D1012008E01021200002F017F80028D9
:1012C00001D1012000E0002010BD000001005041CC
:1012D0000100D041010050420100D04201005043C2
:1012E0000100D043014050440180CF4401205045CB
:1012F00000008C4000000C4100008C4100000C42BA
:1013000000008C42000050420000D04200005043D8
:101310000000D043004050440080CF44002050459E
:101320000020D0450000FA42000075430000FA4357
:1013300000007A440000FA4410B5040000212000A7
:1013400001F0D4FF002801D1012018E00021200085
:1013500001F052FD002801D1012010E00021200001
:1013600001F00BFF002801D1012008E0002120003E
:1013700001F0DFFE002801D1012000E0002010BDB7
:1013800038B504000D006946200001F014FB002868
:1013900001D101200EE09DF80000002804D0202893
:1013A00005D10120287004E00020287001E0012010
:1013B00000E0002032BD38B504000D002900C9B29C
:1013C000200001F0B6FE002801D1012000E000203D
:1013D00032BD10B50400B3EE0A0A2000FFF798F8FA
:1013E000012801D1012028E00021200000F095FE15
:1013F000002801D1012020E01721200000F082F810
:10140000012801D1012018E00421200001F09CFAFC
:10141000002801D1012010E01021200001F070FA15
:10142000002801D1012008E08021200001F000F90E
:10143000002801D1012000E0002010BD10B50400FB
:101440000021200001F0F4F8002801D1012018E06B
:101450000021200001F054FA002801D1012010E001
:101460000021200001F070FA002801D1012008E0DD
:101470000021200000F046F8012801D1012000E001
:10148000002010BD38B504000D006946200001F0B1
:10149000FDFB002801D101200EE09DF8000000288E
:1014A00004D0102805D10120287004E00020287005
:1014B00001E0012000E0002032BD38B504000D003D
:1014C0002900200001F0ABFF002801D1012000E03D
:1014D000002032BD10B504000221200001F0C8F93F
:1014E000002801D1012000E0002010BD10B504004B
:1014F0000021200001F0BCF9002801D1012000E00A
:10150000002010BD38B504000D002900C9B220002C
:1015100001F0B2FF002801D1012000E0002032BD1F
:1015200010B50400B3EE0A0A2000FEF7F1FF01280F
:1015300001D1012020E00021200000F0EEFD002874
:1015400001D1012018E00421200001F0FDF900285C
:1015500001D1012010E00821200001F0ADF90028A0
:1015600001D1012008E00221200001F053FE0028F3
:1015700001D1012000E0002010BD10B504000021C1
:10158000200001F047FE002801D1012010E00021D9
:10159000200001F091F9002801D1012008E000218C
:1015A000200001F0D1F9002801D1012000E0002045
:1015B00010BD38B504000D006946200001F079FB2C
:1015C000002801D101200EE09DF80000002804D081
:1015D000202805D10120287004E00020287001E0B7
:1015E000012000E0002032BD10B504009FED6A0A22
:1015F0002000FEF78DFF012801D1012028E0002105
:10160000200000F08AFD002801D1012020E0002107
:10161000200001F067FD002801D1012018E002211F
:10162000200001F0CBFC002801D1012010E0802136
:10163000200001F0E1FB002801D1012008E0202179
:10164000200001F077FE002801D1012000E00020F9
:1016500010BD10B504000021200001F06BFE002831
:1016600001D1012018E00021200001F0C5FB002875
:1016700001D1012010E00021200001F033FD0028FD
:1016800001D1012008E00021200001F097FC002892
:1016900001D1012000E0002010BD38B504000D008C
:1016A0006946200001F074F9002801D101200EE004
:1016B0009DF80000002804D0082805D101202870DA
:1016C00004E00020287001E0012000E0002032BD8D
:1016D00038B504000D002900C9B2200001F06EFCED
:1016E000002801D1012000E0002032BD10B5040027
:1016F0009FED290A2000FEF70BFF012801D10120F0
:1017000048E00021200000F008FD002801D1012060
:1017100040E00821200001F04BFB002801D101200E
:1017200038E00421200001F01FFB002801D1012036
:1017300030E00221200001F0F3FA002801D101205D
:1017400028E00821200000F05DF9012801D10120E6
:1017500020E00221200000F063F9012801D10120DE
:1017600018E00121200000F069F9012801D10120D1
:1017700010E08021200001F03FFB002801D1012072
:1017800008E04021200001F0F9FD002801D10120EE
:1017900000E0002010BD00000000D04310B50400A0
:1017A0000021200001F0EAFD002801D1012038E0ED
:1017B0000021200001F020FB002801D1012030E0B1
:1017C0000021200000F01EF9012801D1012028E0AD
:1017D0000021200000F024F9012801D1012020E09F
:1017E0000021200000F02AF9012801D1012018E091
:1017F0000021200001F094FA002801D1012010E01E
:101800000021200001F0B0FA002801D1012008E0F9
:101810000021200001F0CCFA002801D1012000E0D5
:10182000002010BD38B504000D006946200001F00D
:10183000E8F8002801D101200EE09DF80000002802
:1018400004D0202805D10120287004E00020287051
:1018500001E0012000E0002032BD000010B50400CE
:101860009FED9B0A2000FEF753FE012801D10120C5
:1018700058E00021200000F050FC002801D1012098
:1018800050E00821200001F093FA002801D1012046
:1018900048E00421200001F067FA002801D101206E
:1018A00040E00221200001F03BFA002801D1012094
:1018B00038E00821200000F0A5F8012801D101201E
:1018C00030E00321200000F0ABF8012801D1012015
:1018D00028E00321200000F0B1F8012801D1012007
:1018E00020E00821200000F0B7F8012801D10120F4
:1018F00018E08021200001F087FB002801D10120A1
:1019000010E08021200001F077FA002801D10120A9
:1019100008E00821200001F0C5FC002801D10120C9
:1019200000E0002010BD10B504000021200001F0EF
:10193000B9FC002801D1012048E00021200001F07D
:101940005BFA002801D1012040E00021200000F0D6
:1019500059F8012801D1012038E00021200000F0D1
:101960005FF8012801D1012030E00021200000F0C3
:1019700065F8012801D1012028E00021200000F0B5
:101980006BF8012801D1012020E00021200001F0A6
:101990003BFB002801D1012018E00021200001F0CC
:1019A000BFF9002801D1012010E00021200001F042
:1019B000DBF9002801D1012008E00021200001F01E
:1019C000F7F9002801D1012000E0002010BD38B552
:1019D00004000D006946200001F000F8002801D144
:1019E00001200EE09DF80000002804D0102805D149
:1019F0000120287004E00020287001E0012000E0B0
:101A0000002032BD38B504000D002900C9B2200005
:101A100001F016FA002801D1012000E0002032BDBB
:101A200038B504000D002900C9B2200001F052FAB7
:101A3000002801D1012000E0002032BD38B50400AB
:101A40000D002900C9B2200001F06AFA002801D176
:101A5000012000E0002032BD38B504000D0029004F
:101A6000C9B2200001F083FA002801D1012000E072
:101A7000002032BD10B504009FED150A2000FEF7CE
:101A800047FD012801D1012020E00021200000F0C5
:101A900044FB002801D1012018E04021200001F082
:101AA000F5F9002801D1012010E08021200001F08B
:101AB000A3F9002801D1012008E00421200001F051
:101AC000CDFB002801D1012000E0002010BD000066
:101AD0000000D043000050410000D04110B5040088
:101AE0000021200001F0BAFB002801D1012010E004
:101AF0000021200001F080F9002801D1012008E038
:101B00000021200001F0C2F9002801D1012000E0ED
:101B1000002010BD38B504000D006946200000F01B
:101B2000F5FF002801D101200EE09DF800000028FB
:101B300004D0402805D10120287004E0002028703E
:101B400001E0012000E0002032BD38B504000D00A6
:101B50006946200000F068FF002801D101200EE056
:101B60009DF80000002804D0012805D1012028702C
:101B700004E00020287001E0012000E0002032BDD8
:101B800038B504000D006946200000F060FF002811
:101B900001D101200EE09DF80000002804D00228A9
:101BA00005D10120287004E00020287001E0012008
:101BB00000E0002032BD38B504000D006946200069
:101BC00000F058FF002801D101200EE09DF8000030
:101BD000002804D0042805D10120287004E000204A
:101BE000287001E0012000E0002032BD38B504007B
:101BF0000D006946200000F050FF002801D10120AF
:101C00000EE09DF80000002804D0082805D101202E
:101C1000287004E00020287001E0012000E000208E
:101C200032BD38B504000D006946200000F048FFC1
:101C3000002801D101200EE09DF80000002804D00A
:101C4000102805D10120287004E00020287001E050
:101C5000012000E0002032BD38B504000D006946C7
:101C6000200000F040FF002801D101200EE09DF887
:101C70000000002804D0202805D10120287004E0AD
:101C80000020287001E0012000E0002032BD0000AB
:101C900038B52DED028B0400B0EE408A9FED2F0A7F
:101CA000B4EE408AF1EE10FA01D5082548E09FED28
:101CB0002C0AB4EE408AF1EE10FA01D510253FE06F
:101CC0009FED280AB4EE408AF1EE10FA01D51825EE
:101CD00036E09FED250AB4EE408AF1EE10FA01D508
:101CE00020252DE09FED210AB4EE408AF1EE10FA96
:101CF00001D5282524E09FED1E0AB4EE408AF1EEBE
:101D000010FA01D530251BE09FED1A0AB4EE408A87
:101D1000F1EE10FA01D5382512E09FED170AB4EE66
:101D2000408AF1EE10FA01D5402509E09FED130A33
:101D3000B4EE408AF1EE10FA01D5482500E05025B6
:101D40002900C9B2200000F02BFC002801D101209D
:101D500000E00020BDEC028B32BD000001002041FC
:101D60000100C841010048420100C8420100484347
:101D70000100C843010048440100C84401404E45E9
:101D800038B504000D006946200000F032FF00283D
:101D900001D101200FE09DF80000002802D020288A
:101DA00003D005E00020287004E00120287001E045
:101DB000012000E0002032BD38B504000D00694666
:101DC000200000F003FF002801D101200FE09DF862
:101DD0000000002802D0102803D005E00020287061
:101DE00004E00120287001E0012000E0002032BD65
:101DF00038B504000D006946200000F00DFF0028F2
:101E000001D101200FE09DF80000002802D04028F9
:101E100003D005E00020287004E00120287001E0D4
:101E2000012000E0002032BD38B504000D0029007B
:101E3000200000F004FF002801D1012000E0002074
:101E400032BD38B504000D002900200001F0BAFAB7
:101E5000002801D1012000E0002032BD38B5040087
:101E60000D002900200000F08AFE002801D1012089
:101E700000E0002032BD38B504000D002800C0B2DB
:101E80000028072807D82900C9B2200000F01CFB51
:101E9000002804D101E0012002E0012000E0002040
:101EA00032BDFEB504000D000026002001906946F9
:101EB0002000FFF7C6FF012801D101201CE09DF89A
:101EC00001009DF8007057EA002701A92000FEF7E5
:101ED00082FA012801D101200EE0380000B200EEA4
:101EE000100AB8EEC00ADDED010A20EE200ABDEEB0
:101EF000C00A85ED000A0020FEBD38B504000D00C3
:101F00002800C0B20028012804D9C01E012801D928
:101F1000C01E07D12900C9B2200000F01DFB002817
:101F200004D101E0012002E0012000E0002032BDE8
:101F300038B504000D002800C0B2002801D02028C8
:101F400007D12900C9B2200000F04EFB002804D1BF
:101F500001E0012002E0012000E0002032BD38B5A0
:101F600004000D00290089B2200000F067FA002863
:101F700001D1012000E0002032BD38B504000D0081
:101F80002800C0B2002801D0802807D12900C9B29A
:101F9000200000F0BDFA002804D101E0012002E099
:101FA000012000E0002032BD38B504000D002900FA
:101FB000C9B22000FEF76AFE32BD38B504000D003C
:101FC0002800C0B20028032807D82900C9B2200081
:101FD00000F09AFB002804D101E0012002E001207A
:101FE00000E0002032BDF0B4024610689568131876
:101FF000506803EB5004C00721D54D441FE0F0BCEE
:1020000002F10C00704713F8017B05F8017B491EB3
:10201000F9D1A0B1B60813F8011B06F00306032E90
:1020200008BF13F8016B01EB06214942801C2944CB
:1020300005D011F8016B05F8016B401EF9D1A342E0
:10204000DDD013F8016B16F0030104BF13F8011B78
:10205000C91C30090F28DAD113F8010B0F30D6E76D
:10206000F8B504000D0016001F003B009BB23200C3
:102070002900C9B2200001F024FC002801D0002072
:1020800000E00120F2BDF8B504000D0016001F00AD
:102090003B009BB232002900C9B2200001F003FCD2
:1020A000002801D0002000E00120F2BD38B5040076
:1020B0000D0001232A000F212000FFF7D1FF002887
:1020C00001D1002004E028782870287828700120A9
:1020D00032BD38B504000D0001236A4612212000EC
:1020E000FFF7BEFF002801D1002015E09DF8000099
:1020F00010F0BF008DF800009DF8000028438DF817
:10210000000001236A4612212000FFF7BCFF0028CF
:1021100001D1002000E0012032BD38B504000D00DF
:1021200001236A4610212000FFF79AFF002801D101
:10213000002015E09DF8000010F0F3008DF800007D
:102140009DF8000028438DF8000001236A46102105
:102150002000FFF798FF002801D1002000E00120B7
:1021600032BD38B504000D0001232A0010212000E3
:10217000FFF776FF002801D1002004E0287810F056
:102180000C002870012032BD2DE9F84304000D0039
:10219000022600275FF000084046C0B203281DDA7F
:1021A0000020814648463100C0B2C9B2884212D2EE
:1021B00001233800C0B205EB000217F12801C9B2B3
:1021C0002000FFF74DFF002801D1002007E07F1C11
:1021D00019F10109E6E718F10108DDE70120BDE882
:1021E000F28338B504000D0001236A461021200057
:1021F000FFF736FF002801D1002015E09DF8000010
:1022000010F00F008DF800009DF8000028438DF8B5
:10221000000001236A4610212000FFF734FF002848
:1022200001D1002000E0012032BD38B504000D00CE
:1022300001232A0010212000FFF712FF002801D1FE
:10224000002004E0287810F0F0002870012032BD52
:1022500038B504000D0001236A4611212000FFF764
:10226000FFFE002801D1002015E09DF8000010F0CD
:10227000F3008DF800009DF8000028438DF8000061
:1022800001236A4611212000FFF7FDFE002801D13D
:10229000002000E0012032BD38B504000D0001230C
:1022A0002A0011212000FFF7DBFE002801D10020C9
:1022B00004E0287810F00C002870012032BD2DE9D0
:1022C000F84304000D00022600275FF00008404696
:1022D000C0B203281DDA0020814648463100C0B252
:1022E000C9B2884212D201233800C0B205EB000205
:1022F00017F12201C9B22000FFF7B2FE002801D178
:10230000002007E07F1C19F10109E6E718F1010838
:10231000DDE70120BDE8F28338B504000D0001239C
:102320006A4611212000FFF79BFE002801D1002002
:1023300015E09DF8000010F00F008DF800009DF8EA
:10234000000028438DF8000001236A461121200077
:10235000FFF799FE002801D1002000E0012032BDE6
:1023600038B504000D0001232A0011212000FFF7D9
:1023700077FE002801D1002004E0287810F0F0005A
:102380002870012032BD38B504000D0001236A46D3
:1023900011212000FFF764FE002801D1002015E084
:1023A0009DF8000010F0FD008DF800009DF8000081
:1023B00028438DF8000001236A4611212000FFF711
:1023C00062FE002801D1002000E0012032BD38B5B6
:1023D00004000D0001232A0011212000FFF740FE18
:1023E000002801D1002004E0287810F002002870B5
:1023F000012032BD38B504000D0001236A460121D9
:102400002000FFF72DFE002801D1002015E09DF8E7
:10241000000010F07F008DF800009DF800002843B8
:102420008DF8000001236A4601212000FFF72BFEF2
:10243000002801D1002000E0012032BDF8B50400E1
:102440000D002F002E00B6B2360A01236A4606217F
:102450002000FFF705FE002801D1002033E0002016
:102460008DF800009DF8000038438DF8000001232E
:102470006A4606212000FFF706FE002801D1002051
:1024800021E016F0070601236A4607212000FFF726
:10249000E7FD002801D1002015E09DF8000010F0B4
:1024A000F8008DF800009DF8000030438DF8000022
:1024B00001236A4607212000FFF7E5FD002801D12E
:1024C000002000E00120F2BD38B504000D0001231A
:1024D0006A4608212000FFF7C3FD002801D1002033
:1024E00015E09DF8000010F0F8008DF800009DF850
:1024F000000028438DF8000001236A4608212000CF
:10250000FFF7C1FD002801D1002000E0012032BD0D
:1025100038B504000D0001236A4609212000FFF7A9
:102520009FFD002801D1002015E09DF8000010F06B
:102530007F008DF800009DF8000028438DF8000012
:1025400001236A4609212000FFF79DFD002801D1E3
:10255000002000E0012032BD38B504000D00012349
:102560006A460A212000FFF77BFD002801D10020E8
:1025700015E09DF8000010F0F8008DF800009DF8BF
:10258000000028438DF8000001236A460A2120003C
:10259000FFF779FD002801D1002000E0012032BDC5
:1025A00038B504000D0001236A460A212000FFF718
:1025B00057FD002801D1002015E09DF8000010F023
:1025C00087008DF800009DF8000028438DF800007A
:1025D00001236A460A212000FFF755FD002801D19A
:1025E000002000E0012032BD38B504000D000123B9
:1025F0006A460D212000FFF733FD002801D100209D
:1026000015E09DF8000010F0DF008DF800009DF847
:10261000000028438DF8000001236A460D212000A8
:10262000FFF731FD002801D1002000E0012032BD7C
:1026300038B504000D0001236A460D212000FFF784
:102640000FFD002801D1002015E09DF8000010F0DA
:102650007F008DF800009DF8000028438DF80000F1
:1026600001236A460D212000FFF70DFD002801D14E
:10267000002000E0012032BD38B504000D00012328
:102680006A4612212000FFF7EBFC002801D1002050
:1026900015E09DF8000010F0FB008DF800009DF89B
:1026A000000028438DF8000001236A461221200013
:1026B000FFF7E9FC002801D1002000E0012032BD35
:1026C00038B504000D0001236A4613212000FFF7EE
:1026D000C7FC002801D1002015E09DF8000010F093
:1026E000FB008DF800009DF8000028438DF80000E5
:1026F00001236A4613212000FFF7C5FC002801D101
:10270000002000E0012032BD38B504000D00012397
:102710006A4614212000FFF7A3FC002801D1002005
:1027200015E09DF8000010F0FC008DF800009DF809
:10273000000028438DF8000001236A461421200080
:10274000FFF7A1FC002801D1002000E0012032BDEC
:1027500038B504000D0001236A4615212000FFF75B
:102760007FFC002801D1002015E09DF8000010F04A
:10277000FC008DF800009DF8000028438DF8000053
:1027800001236A4615212000FFF77DFC002801D1B6
:10279000002000E0012032BD38B504000D00012307
:1027A0006A4617212000FFF75BFC002801D10020BA
:1027B00015E09DF8000010F07F008DF800009DF8F6
:1027C000000028438DF8000001236A4617212000ED
:1027D000FFF759FC002801D1002000E0012032BDA4
:1027E00038B504000D0001236A4617212000FFF7C9
:1027F00037FC002801D1002015E09DF8000010F002
:102800009F008DF800009DF8000028438DF800001F
:1028100001236A4617212000FFF735FC002801D16B
:10282000002000E0012032BD38B504000D00012376
:102830006A4617212000FFF713FC002801D1002071
:1028400015E09DF8000010F07F008DF800009DF865
:10285000000028438DF8000001236A46172120005C
:10286000FFF711FC002801D1002000E0012032BD5B
:1028700038B504000D0001236A4619212000FFF736
:10288000EFFB002801D1002015E09DF8000010F0BA
:10289000FD008DF800009DF8000028438DF8000031
:1028A00001236A4619212000FFF7EDFB002801D122
:1028B000002000E0012032BD38B504000D000123E6
:1028C0006A4619212000FFF7CBFB002801D1002028
:1028D00015E09DF8000010F0F7008DF800009DF85D
:1028E000000028438DF8000001236A4619212000CA
:1028F000FFF7C9FB002801D1002000E0012032BD14
:1029000038B504000D0001236A4619212000FFF7A5
:10291000A7FB002801D1002015E09DF8000010F071
:10292000EF008DF800009DF8000028438DF80000AE
:1029300001236A4619212000FFF7A5FB002801D1D9
:10294000002000E0012032BD38B504000D00012355
:102950006A4619212000FFF783FB002801D10020DF
:1029600015E09DF8000010F0FB008DF800009DF8C8
:10297000000028438DF8000001236A461921200039
:10298000FFF781FB002801D1002000E0012032BDCB
:1029900038B504000D0001232A001B212000FFF799
:1029A0005FFB002801D1002004E0287810F0080027
:1029B0002870012032BD38B504000D0001232A0023
:1029C0001B212000FFF74CFB002801D1002004E070
:1029D000287810F020002870012032BD38B504009E
:1029E0000D0001232A001C212000FFF739FB0028DD
:1029F00001D1002004E0287810F010002870012098
:102A000032BD38B504000D0001232A001C2120002E
:102A1000FFF726FB002801D1002004E0287810F001
:102A200020002870012032BD38B504000D000123BC
:102A30002A001D212000FFF713FB002801D10020F0
:102A400004E0287810F001002870012032BD38B56C
:102A500004000D0001232A001D212000FFF700FBC8
:102A6000002801D1002004E0287810F0020028702E
:102A7000012032BD38B504000D0001232A001D21BC
:102A80002000FFF7EDFA002801D1002004E02878AB
:102A900010F004002870012032BD38B504000D008C
:102AA00001232A001D212000FFF7DAFA002801D1B6
:102AB000002004E0287810F008002870012032BDC2
:102AC00038B504000D0001232A001D212000FFF766
:102AD000C7FA002801D1002004E0287810F0100087
:102AE0002870012032BD38B504000D0001232A00F2
:102AF0001D212000FFF7B4FA002801D1002004E0D6
:102B0000287810F020002870012032BD38B504006C
:102B10000D0001232A001D212000FFF7A1FA002843
:102B200001D1002004E0287810F040002870012036
:102B300032BD38B504000D0001232A001E212000FB
:102B4000FFF78EFA002801D1002004E0287810F069
:102B500001002870012032BD38B504000D000123AA
:102B60002A001E212000FFF77BFA002801D1002057
:102B700004E0287810F002002870012032BD38B53A
:102B800004000D0001236A463A212000FFF768FA8D
:102B9000002801D1002018E001230DF101023B21A2
:102BA0002000FFF75DFA002801D100200DE09DF81C
:102BB000010010F00F008DF801009DF801009DF854
:102BC000001051EA00212980012032BD38B50400EF
:102BD0000D0001232A003B212000FFF741FA0028C5
:102BE00001D1002004E0287810F0100028700120A6
:102BF00032BD38B504000D0001232A003B2120001E
:102C0000FFF72EFA002801D1002004E0287810F008
:102C100020002870012032BD38B504000D000123CA
:102C20002A003B212000FFF71BFA002801D10020D9
:102C300004E0287810F040002870012032BD38B53B
:102C400004000D0001236A463C212000FFF708FA2A
:102C5000002801D1002018E001230DF101023D21DF
:102C60002000FFF7FDF9002801D100200DE09DF8BC
:102C7000010010F003008DF801009DF801009DF89F
:102C8000001051EA00212980012032BD38B504002E
:102C90000D0001232A0053212000FFF7E1F900284D
:102CA00001D1002004E0287810F0100028700120E5
:102CB00032BD38B504000D0001232A005321200045
:102CC000FFF7CEF9002801D1002004E0287810F0A9
:102CD00020002870012032BD38B504000D0001230A
:102CE0006A4658212000FFF7BBF9002801D10020D7
:102CF00015E09DF8000010F0FE008DF800009DF832
:102D0000000028438DF8000001236A465821200066
:102D1000FFF7B9F9002801D1002000E0012032BD01
:102D200038B504000D0001236A4658212000FFF742
:102D300097F9002801D1002015E09DF8000010F05F
:102D4000FD008DF800009DF8000028438DF800007C
:102D500001236A4658212000FFF795F9002801D188
:102D6000002000E0012032BD38B504000D00012331
:102D70006A4658212000FFF773F9002801D100208E
:102D800015E09DF8000010F0FB008DF800009DF8A4
:102D9000000028438DF8000001236A4658212000D6
:102DA000FFF771F9002801D1002000E0012032BDB9
:102DB00038B504000D0001236A4658212000FFF7B2
:102DC0004FF9002801D1002015E09DF8000010F017
:102DD000F7008DF800009DF8000028438DF80000F2
:102DE00001236A4658212000FFF74DF9002801D140
:102DF000002000E0012032BD38B504000D000123A1
:102E00006A4658212000FFF72BF9002801D1002045
:102E100015E09DF8000010F07F008DF800009DF88F
:102E2000000028438DF8000001236A465821200045
:102E3000FFF729F9002801D1002000E0012032BD70
:102E400038B504000D0015F01F0501236A4659210D
:102E50002000FFF705F9002801D1002015E09DF8BA
:102E6000000010F0E0008DF800009DF800002843FD
:102E70008DF8000001236A4659212000FFF703F96D
:102E8000002801D1002000E0012032BD38B5040047
:102E90000D0001236A4659212000FFF7E1F80028C0
:102EA00001D1002015E09DF8000010F09F008DF882
:102EB00000009DF8000028438DF8000001236A46B9
:102EC00059212000FFF7DFF8002801D1002000E0A1
:102ED000012032BD38B504000D0015F003050123B3
:102EE0006A465A212000FFF7BBF8002801D10020D4
:102EF00015E09DF8000010F0FC008DF800009DF832
:102F0000000028438DF8000001236A465A21200062
:102F1000FFF7B9F8002801D1002000E0012032BD00
:102F200038B504000D00AD0015F00C0501236A460C
:102F30005A212000FFF794F8002801D1002015E065
:102F40009DF8000010F0F3008DF800009DF80000DF
:102F500028438DF8000001236A465A212000FFF71C
:102F600092F8002801D1002000E0012032BD38B5E0
:102F700004000D002D0115F0F00501236A465A21C9
:102F80002000FFF76DF8002801D1002015E09DF822
:102F9000000010F00F008DF800009DF8000028439D
:102FA0008DF8000001236A465A212000FFF76BF8D4
:102FB000002801D1002000E0012032BD38B5040016
:102FC0000D0015F03F0501236A465B212000FFF745
:102FD00047F8002801D1002015E09DF8000010F00E
:102FE000C0008DF800009DF8000028438DF8000017
:102FF00001236A465B212000FFF745F8002801D134
:10300000002000E0012032BD38B504000D0001238E
:103010006A465B212000FFF723F8002801D1002039
:1030200015E09DF8000010F07F008DF800009DF87D
:10303000000028438DF8000001236A465B21200030
:10304000FFF721F8002801D1002000E0012032BD67
:1030500038B504000D0015F00F0501236A465C2108
:103060002000FEF7FDFF002801D1002015E09DF8AB
:10307000000010F0F0008DF800009DF800002843DB
:103080008DF8000001236A465C212000FEF7FBFF5B
:10309000002801D1002000E0012032BD38B5040035
:1030A0000D0001236A465C212000FEF7D9FF0028AD
:1030B00001D1002015E09DF8000010F0EF008DF820
:1030C00000009DF8000028438DF8000001236A46A7
:1030D0005C212000FEF7D7FF002801D1002000E08E
:1030E000012032BD38B504000D006D0115F06005FA
:1030F00001236A465C212000FEF7B2FF002801D1BF
:10310000002015E09DF8000010F09F008DF80000F1
:103110009DF8000028438DF8000001236A465C21D9
:103120002000FEF7B0FF002801D1002000E00120C0
:1031300032BD38B504000D0001236A465D21200030
:10314000FEF78EFF002801D1002015E09DF8000059
:1031500010F0F8008DF800009DF8000028438DF86D
:10316000000001236A465D212000FEF78CFF002845
:1031700001D1002000E0012032BDF8B504000D00AF
:1031800015F01F07C5F34016FF0017F0F8070123DD
:103190006A465D212000FEF763FF002801D1002070
:1031A00037E09DF8000010F007008DF800009DF852
:1031B000000038438DF8000001236A465D2120009D
:1031C000FEF761FF002801D1002022E0F60116F091
:1031D000800601236A465C212000FEF741FF00289B
:1031E00001D1002015E09DF8000010F07F008DF85F
:1031F00000009DF8000030438DF8000001236A466E
:103200005C212000FEF73FFF002801D1002000E0F4
:103210000120F2BD38B504000D0001236A465E218D
:103220002000FEF71DFF002801D1002015E09DF8C9
:10323000000010F0FD008DF800009DF8000028430C
:103240008DF8000001236A465E212000FEF71BFF77
:10325000002801D1002000E0012032BD38B5040073
:103260000D0001236A465E212000FEF7F9FE0028CA
:1032700001D1002015E09DF8000010F0FB008DF852
:1032800000009DF8000028438DF8000001236A46E5
:103290005E212000FEF7F7FE002801D1002000E0AB
:1032A000012032BD38B504000D0001236A465E21BD
:1032B0002000FEF7D5FE002801D1002015E09DF882
:1032C000000010F0F7008DF800009DF80000284382
:1032D0008DF8000001236A465E212000FEF7D3FE30
:1032E000002801D1002000E0012032BD38B50400E3
:1032F0000D0001236A465E212000FEF7B1FE002882
:1033000001D1002015E09DF8000010F0EF008DF8CD
:1033100000009DF8000028438DF8000001236A4654
:103320005E212000FEF7AFFE002801D1002000E062
:10333000012032BD38B504000D0001236A465E212C
:103340002000FEF78DFE002801D1002015E09DF839
:10335000000010F0DF008DF800009DF80000284309
:103360008DF8000001236A465E212000FEF78BFEE7
:10337000002801D1002000E0012032BD38B5040052
:103380000D0001236A465E212000FEF769FE002839
:1033900001D1002015E09DF8000010F0BF008DF86D
:1033A00000009DF8000028438DF8000001236A46C4
:1033B0005E212000FEF767FE002801D1002000E01A
:1033C000012032BD2DE9F84304000D00022600273C
:1033D0005FF000084046C0B200281DD100208146A1
:1033E00048463100C0B2C9B2884212D20123380027
:1033F000C0B205EB000217F13E01C9B22000FEF792
:103400002FFE002801D1002007E07F1C19F10109DF
:10341000E6E718F10108DDE70120BDE8F2832DE9B8
:10342000F84304000D00022600275FF00008404624
:10343000C0B200281DD10020814648463100C0B2EC
:10344000C9B2884212D201233800C0B205EB000293
:1034500017F14B01C9B22000FEF702FE002801D18E
:10346000002007E07F1C19F10109E6E718F10108C7
:10347000DDE70120BDE8F28338B504000D008021AE
:103480002000FEF7B7FF01236A460F212000FEF758
:10349000E7FD9DF8000010F0E0008DF800009DF8B9
:1034A000001015F01F0001438DF8001001236A463B
:1034B0000F212000FEF7E7FD00212000FEF79AFF14
:1034C000012032BD10B586B004002000C0B2002833
:1034D00010D100200090DFF89805006850F002003D
:1034E000DFF88C150860DFF88805006810F002002E
:1034F000009000982000C0B2012810D10020009058
:10350000DFF86C05006850F00200DFF86415086011
:10351000DFF85C05006810F0020000900098DFF80A
:1035200054052100C9B250F82100019001200290F9
:10353000002003900220049001A9DFF83C0522003E
:10354000D2B250F8220000F093FB06B010BD10B5C7
:1035500004000022DFF81C052100C9B250F8211038
:1035600089B2DFF814052300DBB250F8230000F025
:1035700089FC10BD10B504000122DFF8F804210019
:10358000C9B250F8211089B2DFF8EC042300DBB295
:1035900050F8230000F076FC10BD10B50400DFF8F1
:1035A000D4042100C9B250F8211089B2DFF8C80450
:1035B0002200D2B250F8220000F071FC10BD80B59C
:1035C00086B0DFF8B80400F07BFE002840F0888069
:1035D00000200090DFF8A804006850F48040DFF875
:1035E000A0140860DFF89804006810F48040009090
:1035F000009800200090DFF87804006850F0020086
:10360000DFF86C140860DFF86804006810F002004E
:10361000009000984FF4004001900220029000209A
:103620000390032004900520059001A9DFF85404BD
:1036300000F01EFB4FF4005001900020039001A900
:10364000DFF8400400F014FBDFF83C04DFF82C1432
:1036500008604FF48270DFF8241448604FF4004093
:10366000DFF8181488600020DFF81014C86002200A
:10367000DFF8081408610120DFF8001448614FF4F6
:103680000070DFF8F81388611820DFF8F013C861C4
:103690000020DFF8E81308620020DFF8E01348623A
:1036A0000020DFF8D81388620720DFF8D013C86243
:1036B000DFF8C80300F022FCDFF8C00300680068F0
:1036C00050F48040DFF8B41309680860DFF8AC03F9
:1036D0000068006850F04000DFF8A0130968086037
:1036E000002007B000BD80B586B001224FF4807184
:1036F000DFF8980300F0C6FB01224FF40051DFF819
:10370000900300F0BFFB01224FF48051DFF87403F7
:1037100000F0B8FB032004900020039001200290E9
:1037200000200090DFF84803006850F00100DFF847
:1037300040130860DFF83803006810F001000090C3
:1037400000984FF48070019001A9DFF8400300F069
:103750008FFA01224FF48071DFF8300300F092FB02
:1037600000200090C248006850F00200C049086084
:10377000BF48006810F00200009000984FF480509D
:10378000019001A9BF4800F073FA01224FF4805163
:10379000BC4800F077FB00200090B548006850F06E
:1037A0000400B3490860B248006810F004000090BB
:1037B00000984FF40050019001A9B54800F058FA64
:1037C00001224FF40051B24800F05CFB002007B02A
:1037D00000BD38B586B00400250003200490002009
:1037E000039001200290E878002803D0022839D005
:1037F0001CD353E0002000909D48006850F0010069
:103800009B4908609A48006810F0010000900098F9
:103810004FF48070019001224FF480719B4800F0BA
:1038200031FB01A9994800F023FA39E0002000900B
:103830008F48006850F002008D4908608C4800688D
:1038400010F00200009000984FF480500190012287
:103850004FF480518B4800F015FB01A9894800F016
:1038600007FA1DE0002000908148006850F0040035
:103870007F4908607E48006810F0040000900098BE
:103880004FF40050019001224FF40051804800F0A5
:10389000F9FA01A97E4800F0EBF901E0032000E00D
:1038A000002007B030BDF8B504000D0016001F0061
:1038B0003B009BB232002900C9B2200000F030F872
:1038C000F2BD2DE9F0410400884615001E002700D6
:1038D0007878002808D1300080B2022804DB3878DC
:1038E000BC2801D158F080087878012815D1300023
:1038F00080B2022808DB3878332802D0402803D071
:1039000002E058F04008FFE733009BB22A0041462E
:10391000C9B2200000F02AF800E00120BDE8F081E3
:103920002DE9F04104000D0016001F00200000F0FA
:103930005FF82900C9B2514800F07CF95FF0000837
:103940004046C0B2390080B289B2884208D24046AF
:10395000C0B2315C494800F06DF918F10108EFE799
:10396000200000F065F80020BDE8F081F8B5040003
:103970000D0016001F00200000F03AF855F08001FD
:10398000C9B23E4800F056F93C480068006830F083
:1039900040003A490968086038480068006830F417
:1039A0008040364909680860380080B2022806D392
:1039B0003A0092B23100314800F00EF903E03100D4
:1039C0002E4800F069F8200000F032F82B4800681B
:1039D000006850F480402949096808602748006859
:1039E000006850F040002549096808600020F2BDD9
:1039F00038B504002500E878002803D002280FD04D
:103A000007D313E000224FF48071204800F03AFA07
:103A10000CE000224FF480511A4800F033FA05E020
:103A200000224FF400511A4800F02CFA002032BD59
:103A300038B504002500E878002803D002280FD00C
:103A400007D313E001224FF48071104800F01AFAF6
:103A50000CE001224FF480510A4800F013FA05E00F
:103A600001224FF400510A4800F00CFA002032BD48
:103A700030380240182F01088C020020C00B0020B3
:103A8000403802400004024000380040000002407C
:103A9000000802400020704772B60268126852F0B7
:103AA000400203681A60BFF34F8FBFF34F8FBFF31D
:103AB0004F8FBFF34F8FBFF34F8FBFF34F8FBFF3C6
:103AC0004F8FBFF34F8FBFF34F8FBFF34F8FBFF3B6
:103AD0004F8FBFF34F8FBFF34F8FBFF34F8FBFF3A6
:103AE0004F8FBFF34F8FBFF34F8FBFF34F8FBFF396
:103AF0004F8FBFF34F8FBFF34F8FBFF34F8FBFF386
:103B00004F8FBFF34F8FBFF34F8FBFF34F8FBFF375
:103B10004F8FBFF34F8FBFF34F8FBFF34F8FBFF365
:103B20004F8FBFF34F8FBFF34F8FBFF34F8FBFF355
:103B30004F8FBFF34F8FBFF34F8FBFF34F8FBFF345
:103B40004F8FBFF34F8FBFF34F8FBFF34F8FBFF335
:103B50004F8FBFF34F8FBFF34F8FBFF34F8FBFF325
:103B60004F8FBFF34F8FBFF34F8FBFF34F8FBFF315
:103B70004F8FBFF34F8FBFF34F8FBFF34F8FBFF305
:103B80004F8FBFF34F8FBFF34F8FBFF34F8FBFF3F5
:103B90004F8FBFF34F8FBFF34F8FBFF34F8FBFF3E5
:103BA0004F8FBFF34F8FBFF34F8FBFF34F8FBFF3D5
:103BB0004F8F0268126832F0400203681A6062B6E2
:103BC00002689268D207FBD50268127B0A7002680D
:103BD00092681206FBD4704710B472B603681B6873
:103BE00053F040030468236013009BB2022B09D3F7
:103BF00003689B68DB07F7D503681B7B0B70491CC8
:103C0000521EF1E7BFF34F8FBFF34F8F03681B685E
:103C100033F040030468236062B603689B68DB07E7
:103C2000FBD503681B7B0B7003689B681B06FBD4EA
:103C300010BC7047026892689207FBD50268117346
:103C4000026892689207FBD5026892681206FBD45C
:103C50007047002070478268521C8260426832B10F
:103C60000268531C036011704168491E416070472F
:103C7000F8B40023002400250026102E80F0F580E3
:103C80000122B24013000A681A4014009C4240F01E
:103C9000EA804A68022A02D04A68122A1ED13200FB
:103CA000D20800EB8202176A5FF00F0C16F00702D1
:103CB000D2B292001CFA02FC37EA0C07D1F810C00D
:103CC00016F00702D2B292001CFA02FC5CEA070767
:103CD0003D003200D20800EB8202156207685FF0F7
:103CE000030C3200D2B252001CFA02FC37EA0C0775
:103CF00091F804C01CF0030C3200D2B252001CFA3E
:103D000002FC5CEA070707604A68012A08D04A6893
:103D1000022A05D04A68112A02D04A68122A24D100
:103D200085685FF0030C3200D2B252001CFA02FC2C
:103D300035EA0C05D1F80CC03200D2B252001CFAA0
:103D400002FC5CEA0505856042685FF0010C1CFA24
:103D500006FC32EA0C02D1F804C0CCF3001C1CFAB9
:103D600006FC5CEA020217004760C5685FF0030CBE
:103D70003200D2B252001CFA02FC35EA0C05D1F82E
:103D800008C03200D2B252001CFA02FC5CEA0505FF
:103D9000C5604A68D20066D5002200924B4A12687C
:103DA00052F48042494F3A60484A126812F4804205
:103DB0000092009A464A3700BF0852F827705FF019
:103DC0000F0C16F00302D2B292001CFA02FC37EA82
:103DD0000C07404A904201D1002514E03E4A90422F
:103DE00001D101250FE03D4A904201D102250AE0B0
:103DF0003B4A904201D1032505E03A4A904201D165
:103E0000042500E00725EDB216F00302D2B29200BD
:103E100095402F432E4A3500AD0842F82570324AAE
:103E20001268A2434D68ED0300D522432E4D2A604F
:103E30002E4D2D68A5434F68BF0300D525432B4A5F
:103E400015602B4A1268A2434F68FF0200D5224337
:103E5000274D2A60274D2D68A5434F68BF0200D526
:103E60002543244A1560761C07E7F1BC7047020021
:103E700010690B009BB2184201D0012000E0002025
:103E8000C0B270471300DBB2002B03D00B009BB213
:103E9000836103E00B009BB21B048361704743699D
:103EA0000A0092B253404361704710B504001248B3
:103EB0000068210089B2084207D0200080B20E4974
:103EC0000860200080B200F071FA10BD4438024052
:103ED000083801400000024000040240000802408F
:103EE000000C024000100240003C0140043C014034
:103EF000083C01400C3C0140143C014010B504005A
:103F0000002C01D101203FE0606A00280020A0625F
:103F100094F85100002805D1002084F850002000BA
:103F200000F01DFC022084F851002068006830F089
:103F30004000216808606168A0680143E0680143AF
:103F40002069014360690143A06910F400700143D6
:103F5000E0690143206A0143A06A014320680160CF
:103F6000A169090C11F00401606A014320684160F5
:103F70002068C06930F400602168C8610020606575
:103F8000012084F85100002010BD2DE9FE4F0700EC
:103F90000E0015009846DDF83090002001900020BA
:103FA00002900020009001245FF0000A97F8500072
:103FB000012801D10220F9E0012087F8500000F02B
:103FC00019FD834697F85100019078680290019896
:103FD00001280CD00298B0F5827F05D1B86800287E
:103FE00002D10198042802D002208246D6E0002E99
:103FF00005D0002D03D0404680B2002802D1012018
:104000008246CBE097F85100012802D1052087F8BD
:10401000510000207865BD63A7F83E80A7F83C807A
:104020003E63A7F83680A7F834800020386400206B
:10403000786438680068400605D43868006850F035
:10404000400039680860F868B0F5006F40D17868C2
:10405000002802D0F88E012806D130883968C8605F
:10406000B61CF88E401EF886F88E002802D1F88F14
:1040700000286ED0002C0FD0F88E00280CD03868A5
:104080008068800708D530883968C860B61CF88E0B
:10409000401EF88600200400F88F00280CD03868F5
:1040A0008068C00708D53868C0682880AD1CF88FC4
:1040B000401EF8870120040019F1010FD4D000F050
:1040C00099FCB0EB0B004845CED30320824665E057
:1040D0007868002802D0F88E012806D13078396837
:1040E0000873761CF88E401EF886F88E002802D1E0
:1040F000F88F00282DD0002C0FD0F88E00280CD07F
:1041000038688068800708D5307839680873761C6D
:10411000F88E401EF88600200400F88F00280CD08E
:1041200038688068C00708D53868C06828706D1C7A
:10413000F88F401EF8870120040019F1010FD4D038
:1041400000F058FCB0EB0B004845CED3032082466C
:1041500024E0CDF800B04B4601220221380000F0E7
:10416000BFF8002802D00320824617E05A4649468D
:10417000380000F006F9002804D0012082462020F3
:1041800078650BE0B868002808D1002000903868F6
:10419000C06800903868806800900098012087F817
:1041A0005100002087F850005046C0B2BDE8FE8F95
:1041B0007CB50400206845682068866816F04100D8
:1041C000012805D1680603D52000216C884776E0D8
:1041D000B00705D5280603D52000616C88476EE03E
:1041E00016F4B07F6BD0A80669D570061BD594F87D
:1041F000510003280DD0606D50F004006065002070
:1042000000902068C0680090206880680090009846
:1042100009E0002000902068C06800902068806855
:10422000009000984BE0B0060FD5606D50F0010093
:104230006065002000902068806800902068006819
:1042400030F04000216808600098F00509D5606DE5
:1042500050F00800606500200090206880680090A1
:104260000098606D002829D02068406830F0E00098
:1042700021684860012084F8510015F0030F1AD01E
:10428000206840688008800021684860E06C002851
:1042900006D00FF23500E16C0865E06C00F0B0FB71
:1042A000A06C00280AD00FF22100A16C0865A06C58
:1042B00000F0A6FB02E0200000F0B6FBFFE773BDB4
:1042C00090F851007047000038B50400A56B00203D
:1042D000E8870020E886280000F0A6FB31BD00003A
:1042E0002DE9F04105000E0017001C00DDF81880D4
:1042F000286880683040B04201D1012000E00020F1
:10430000B8423BD014F1010FF2D0002C05D000F0E0
:1043100071FBB0EB0800A042EAD32868406830F097
:10432000E000296848606868B0F5827F0DD1A86810
:10433000B0F5004F03D0A868B0F5806F05D12868AC
:10434000006830F0400029680860A86AB0F5005F96
:104350000CD1286801684DF6FF70014028680160A3
:104360002868006850F4005029680860012085F82A
:104370005100002085F85000032000E00020BDE837
:10438000F0817CB504000D00160000962B00002281
:1043900080212000FFF7A4FF002805D0606D50F0B9
:1043A00020006065032000E0002076BD10B5040009
:1043B000200080B2102804D100F097FB0120C549ED
:1043C000086010BDFEB504000D0016001F0064213A
:1043D00001A800F0B3FD3800C0B200903000030027
:1043E000DBB22A002100BC4800F0B8F8002804D055
:1043F00001A800F0ABFD0028EDD0F7BD80B5B748AF
:10440000B54908604FF48270B34948600020B24952
:1044100088600020B049C8600020AF4908610020D2
:10442000AD4948614FF40070AB4988610020AA494A
:1044300008620020A84948620720A749C8621820DE
:10444000A549C8610020A4498862A348FFF756FD2A
:1044500001BD80B500220421A148FFF713FD05200E
:1044600000F083FD012204219D48FFF70BFD05208C
:1044700000F07BFD01BD80B510219A48FFF7F7FCE5
:10448000012801D1012000E0002002BD2DE9F0410A
:1044900086B004000D0016005FF00008FF208DF8C4
:1044A000040004A89049D1E90023C0E900230022B8
:1044B00001218B48FFF7E6FC0F200090052302AA9C
:1044C00004A92000FFF761FD9DF80800022830D103
:1044D0009DF80C009DF80B1051EA00210F003800E8
:1044E00080B2002825D03000C0B2390080B289B235
:1044F000884202D23000C0B2070000208046404609
:10450000C0B2390080B289B2884212D272B60F208E
:10451000009001230DF1050201A92000FFF735FDF0
:1045200062B69DF805004146C9B2685418F1010809
:10453000E5E7012201216A48FFF7A4FC0020009072
:104540000098022804DA00BF0098401C0090F7E7AA
:104550005FFA88F8404606B0BDE8F0812DE9F847DB
:10456000C5B006000F0090469A464E9D5FF00009C8
:10457000002403A85D49D1E90023C0E9002301A874
:104580005B49D1E90023C0E9002300F098F8002C32
:1045900003D000F054F800F07FF8002201215048C9
:1045A000FFF770FC72B60F200090052301AA03A943
:1045B0003000FFF7EAFC62B6002C01D000F054F89E
:1045C0009DF8040002282CD19DF805002900C9B2ED
:1045D00051FA8AF1884220DB5046C0B200280BD045
:1045E00072B60F2000905346DBB29BB205AA390089
:1045F0003000FFF7CAFC62B62800C0B2002813D012
:1046000072B60F2000902B00DBB29BB205AA414688
:104610003000FFF7BAFC62B606E07FF00100814689
:1046200002E05FF0FF308146012201212C48FFF7B4
:1046300029FC00F03FF8484646B0BDE8F08700B5D9
:1046400085B01020009001200190032003900020ED
:10465000029069462348FFF70BFB012210212148F5
:10466000FFF710FC05B000BD00B585B0102000902C
:104670002048019002200290032003900020049023
:1046800069461848FFF7F4FA002002906946154879
:10469000FFF7EEFA05B000BD81B000200090009851
:1046A000B0F5866F04DA00BF0098401C0090F6E772
:1046B00001B0704780B50A2000F0F7FC01BD80B55D
:1046C0000A2000F0F9FC01BD10200B49086070477A
:1046D00000000000A8120020680B002000300140FC
:1046E0000004024000000240002F0108082F0108CA
:1046F000102F010800001110143C014080B5032068
:1047000000F0B8FC002200215FF0FF3000F0B8FCA0
:1047100001BD10B586B004002068DFF8AC128842F5
:104720001BD100200090DFF8A402006850F48070D4
:10473000DFF898120860DFF89402006810F48070C7
:104740000090009802200190032002900020039026
:1047500001A9DFF87C02FFF78BFA06B010BD10B597
:1047600086B004002068DFF86C12884240F0918027
:10477000002005909848006850F0020096490860B3
:104780009548006810F002000590059800200590FB
:104790009148006850F001008F4908608E48006819
:1047A00010F00100059005980020059087480068EA
:1047B00050F48050854908608448006810F48050A7
:1047C000059005980420009001200190012002909E
:1047D000002003900020049069467D48FFF748FAC6
:1047E000002204217A48FFF74DFB20200090022090
:1047F0000190022002900320039005200490694656
:104800007648FFF735FA4020009002200190002002
:104810000290032003900520049069466F48FFF73B
:1048200027FA8020009002200190002002900320AF
:1048300003900520049069466848FFF719FA0120A3
:10484000009001200190012002900320039000209D
:10485000049069465E48FFF70BFA012201215C488B
:10486000FFF710FB102000905D480190002002909F
:10487000032003900020049069465848FFF7F8F998
:10488000002203210A2000F0FBFB0A2000F00DFCAF
:10489000FFE706B010BD10B586B004002068B0F187
:1048A000804F24D1002000904E48006850F0010055
:1048B0004C4908604B48006810F0010000900098D7
:1048C0000F20019002200290022003900220049009
:1048D0000120059001A94148FFF7CAF900220221F1
:1048E0001C2000F0CDFB1C2000F0DFFB3BE020682B
:1048F0003D4988421DD1002000903A48006850F0A0
:104900000400384908603748006810F0040000903F
:1049100000984FF4707001900220029000200390E4
:10492000002004900220059001A92948FFF7A0F972
:1049300019E020682D49884215D1002000902348B5
:10494000006850F48030214908602048006810F465
:1049500080300090009800220321182000F090FB86
:10496000182000F0A2FB06B010BD10B586B0040000
:1049700020681F49884224D1002000901348006815
:1049800050F01000114908601048006810F0100045
:10499000009000984FF4C060019002200290012026
:1049A0000390032004900720059001A90B48FFF70E
:1049B0005FF900220421252000F062FB252000F091
:1049C00074FB06B010BD00000020014044380240D6
:1049D0000004024000300140303802400000024034
:1049E0000000111040380240000800400040014023
:1049F0000010014001480068704700BF2C130020E0
:104A0000010091F83500022803D08020486501207C
:104A100009E0052081F8350008680068400840007A
:104A20000A6810600020704770470268531C0360DA
:104A30001170704710B5DFF8900300F071FBDFF8DC
:104A40008C0300F06DFB00242000C0B205280CDAB6
:104A5000DFF87C132200D2B28C2042431144DFF8ED
:104A6000680300F07AFB641CEEE710BD010011F151
:104A700008021078042801D0012008E0907891F80D
:104A80008830DB1E984201D0022000E000207047F1
:104A90001CB500200090FFF712FEDFF8300300F095
:104AA00042FB04002000C0B2002814D16946C74868
:104AB00000F06BFBFFF7FEFD0098083001F06BFD86
:104AC000FFF7FDFD0099C04800F047FBBF4800F02C
:104AD0002AFB0400E6E700F008F8FFF7EBFD13BD42
:104AE00080B5BA4800F01FFB02BD1CB50020009045
:104AF000FFF7EAFDFFF7BFFC002830D0B24800F016
:104B000012FB002828D16946AF4800F03EFB802206
:104B1000009810F10801AF48FFF7B8FC040020002E
:104B2000C0B2002811D0009880F888400098FFF7A4
:104B30009DFF002804D10099A44800F00EFB08E076
:104B40000099A14800F0FDFA03E000999E4800F0AA
:104B5000F8FAFFF7B9FDCDE7FFF7B6FDFFE713BDA4
:104B6000F8B504000D0016001F003B00DBB2320058
:104B7000D2B229002000FFF725FCF1BDFEB50400EC
:104B80000D0016001F00A805800D50EA8420ADF826
:104B900004008DF8066001208DF80000032201A9B1
:104BA0000DF1010001F095FD3300DBB20422390064
:104BB0006846FFF7D5FFF7BD38B504000D002800A3
:104BC00000F0B1FA002808D16946280000F0F1FA97
:104BD0000099200000F0B5FAF1E731BD80B5FFF78C
:104BE0006EFD794800F0F9FA02280ADA694677483A
:104BF00000F0CBFA0099744800F0AFFAFFF775FFA8
:104C0000EFE7FFF757FD01BD2DE9F84F88B006002B
:104C10000F00B6F802905FEA89595FEA9959308827
:104C200059EA802964240020009004A800F078FA52
:104C3000FFF7D4FFB368F0680200D2B27188308801
:104C4000FFF79CFF3800C0B2002801D00020B7E079
:104C5000002C01D101200400210006A800F06EF90B
:104C600006A800F073F9002840F08F80FFF738FFA6
:104C70000028F5D1FFF723FD6946544800F085FA76
:104C80000098083005002878042862D1681C039039
:104C900000980B308046009890F88800C01E83462C
:104CA000039800780E2822D00F2804D010284FD067
:104CB0003E2836D04DE0C246BAF80200494689B2D5
:104CC000884262D170680F2804D09AF8000000284A
:104CD0005BD13EE07069834501DA584600E07069B7
:104CE000706172694146306901F0F3FC5DE0CDF816
:104CF00008800298B0F80100494689B2884244D140
:104D000018F10308BBF1030B7069834501DA5846BB
:104D100000E07069706172694146306901F0D9FC48
:104D200043E0CDF80480019800787168884210D182
:104D3000BBF1010B7069834501DA584600E07069E8
:104D4000706172690198411C306901F0C2FC2CE06D
:104D50001BE01D4800F0E7F900280BD01B4800F0CD
:104D6000E2F9002806D00099174800F0F6F9002073
:104D7000009005E0009904A800F0EFF900200090F1
:104D8000FFF7B3FEFFF796FC6AE70098002803D010
:104D900000990D4800F0D5F904A90C48FFF70CFF65
:104DA000FFF788FC5FF0FF300AE00099064800F04A
:104DB000C8F904A90548FFF7FFFEFFF77BFC0020B8
:104DC00009B0BDE8F08F0000041200200C12002092
:104DD0008C060020680B00202DE9F84189B0040002
:104DE0000D0016001F00DDF84080092200216846F2
:104DF00001F07AFC1822002103A801F075FC0420C0
:104E0000ADF80C000120ADF80E0000200590002048
:104E100006906846079009200890002103A8FFF734
:104E2000F3FE002801D5FF2017E09DF800000028C0
:104E300002D09DF8000010E09DF801002070BDF840
:104E4000020028809DF804003070BDF8050038800D
:104E5000BDF80700A8F8000000200AB0BDE8F08106
:104E600030B58FB004000D002022002107A801F00A
:104E70003BFC8DF81C402000C0B2202801DB1F2223
:104E800001E02200D2B229000DF11D0001F021FC49
:104E90001822002101A801F027FC0820ADF8040029
:104EA0000920ADF8060007A803902020049068466A
:104EB000059001200690002101A8FFF7A5FE00281B
:104EC00001D5FF2001E09DF800000FB030BD38B5DE
:104ED00088B004000D0004220021684601F004FCA3
:104EE0002088ADF804001822002102A801F0FCFB84
:104EF0000520ADF808000520ADF80A0001A80490CF
:104F0000022005906846069004200790002102A820
:104F1000FFF77AFE002801D5FF200DE09DF8000084
:104F2000002802D09DF8000006E0BDF801002080B6
:104F30009DF803002870002009B030BD38B504008A
:104F40000D006560FFF756FD206031BD10B504000F
:104F5000FFF750FD2168411A491C6068884201D260
:104F6000012000E00020C0B210BD31B50024FFF7E1
:104F700041FD0500FFF73EFD401B00998842F9D333
:104F800031BD000010F007035A490A684FF6FF01CF
:104F90000A40594951EA03210A4356490A607047B9
:104FA00054480068C0F302207047012210F01F012E
:104FB0008A40524903005BB25B0941F823207047E5
:104FC000012210F01F018A404D4903005BB25B09CA
:104FD00041F82320704710B4020052B2002A09D5CC
:104FE0000A01484B040064B214F00F04234403F890
:104FF000042C04E00A01444B040064B21A5510BCAE
:10500000704770B4030013F00704D4F107000528BB
:1050100001D3042001E0D4F10700251D072D01D2A2
:10502000002500E0E51E012616FA00F0401E0140B2
:10503000A940012010FA05F56D1E2A401143080011
:1050400070BC704710B50400601EB0F1807F01D3C2
:1050500001200EE0601E2D4908600F215FF0FF3037
:10506000FFF7B9FF00202A49086007202949086096
:10507000002010BD10B504002000FFF783FF10BD15
:105080002DE9F04104000D0016000027FFF788FF0E
:105090008046320029004046FFF7B3FF01002000A0
:1050A00040B2FFF798FFBDE8F08110B50400200082
:1050B00040B2FFF77AFF10BD10B50400200040B2E7
:1050C000FFF77EFF10BD10B504002000FFF7BAFF08
:1050D00010BD042806D10F49096851F004010D4A9A
:1050E000116005E00B49096831F00401094A1160BB
:1050F000704700000CED00E00000FA0500E100E060
:1051000080E100E018ED00E000E400E014E000E0E1
:1051100018E000E010E000E080B501F035FB01BDD3
:105120000060406070470100EFF3108272B60868BB
:10513000884201D1012000E0002082F31088C0B233
:105140007047EFF3108272B603680B60486001602D
:105150000B68596082F310887047EFF3108272B6C3
:10516000086043684B6041604B68196082F31088A7
:105170007047EFF3108172B6026843681A604268A4
:1051800003685A6081F31088704770B504000D0001
:10519000EFF3108672B6206828602068FFF7E9FFF9
:1051A00000202968086000202968486086F310887C
:1051B00070BD70B504000D00EFF3108672B6606824
:1051C00028606068FFF7D5FF00202968086000208C
:1051D0002968486086F3108870BD01000020EFF355
:1051E000108372B60A688A4202D0401C1268FAE73D
:1051F00083F31088704700002DE9F84304000D0088
:1052000016001F00DDF820805FF06409DFF8BC0C99
:105210000068012807DBDFF8B40C0068401EDFF8E7
:10522000AC1C086014E0CDF800803B00DBB232001B
:10523000D2B2290089B2200080B201F0EFFC814691
:105240004846C0B2002803D01E20DFF8801C08604A
:105250004846C0B2BDE8F28310B58AB01B208DF875
:105260001800C5208DF81900D5208DF81A00A5204A
:105270008DF81B0002208DF81C0000208DF81D0009
:10528000B4208DF81E009A208DF81F00E1208DF8C3
:10529000200011208DF821000F208DF82200002021
:1052A0008DF8230000208DF8240000208DF82500C3
:1052B00000208DF8260000208DF82700DFF8100C64
:1052C00000900423012206A9022001F0BBFB040088
:1052D0002000C0B200284BD11B208DF81800C5203B
:1052E0008DF81900D5208DF81A00A5208DF81B0027
:1052F00002208DF81C0000208DF81D0036208DF84E
:105300001E00AC208DF81F00E1208DF82000112038
:105310008DF821000F208DF8220000208DF8230049
:1053200002208DF8240000208DF8250000208DF843
:10533000260000208DF82700DFF8580B059001208B
:10534000049010200390052002900020019014206A
:105350000090142306AA0221DFF8740B008801F0E4
:10536000D3FB04002000C0B2002801D1002000E0DF
:1053700047200AB010BD10B58AB01B208DF8180068
:10538000C5208DF81900D5208DF81A00A5208DF8BC
:105390001B0002208DF81C0000208DF81D00B42099
:1053A0008DF81E009A208DF81F00E1208DF8200056
:1053B00011208DF821000E208DF8220000208DF89C
:1053C000230000208DF8240000208DF82500002007
:1053D0008DF8260000208DF82700DFF8280C0090BB
:1053E0000723012206A9022001F02CFB0400200063
:1053F000C0B2002840F096801B208DF81800C52010
:105400008DF81900D5208DF81A00A5208DF81B0005
:1054100002208DF81C0000208DF81D0036208DF82C
:105420001E00AC208DF81F00E1208DF82000112017
:105430008DF821000E208DF8220000208DF8230029
:1054400001208DF8240000208DF8250000208DF823
:10545000260000208DF82700DFF8780A059001204B
:1054600004901020039005200290002001901E203F
:105470000090142306AA0221DFF8880B008801F0AF
:1054800043FB04002000C0B200284BD11B208DF844
:105490001800C5208DF81900D5208DF81A00A52018
:1054A0008DF81B0002208DF81C0000208DF81D00D7
:1054B00036208DF81E00AC208DF81F00E1208DF8FD
:1054C000200011208DF821000E208DF822000020F0
:1054D0008DF8230002208DF8240000208DF825008F
:1054E00000208DF8260000208DF82700DFF8E8095D
:1054F00005900120049010200390042002900020C9
:10550000019012200090142306AA0221DFF8F40A69
:10551000008801F0F9FA04002000C0B2002801D18F
:10552000002000E047200AB010BD2DE9F84F04002C
:105530000D005FF0000840462900C0B2C9B28842A1
:1055400035D2B5EB08000100C9B2152901DB1427DB
:1055500000E00700B9465FFA89F94046C0B204EBA3
:10556000000ADFF8A4BA4A465146584601F0D6FB75
:10557000DFF8980A07704046C0B2204400903B0014
:10558000DBB20022DFF850090188DFF8780A0088D2
:1055900001F044FB06003000C0B2002801D04720D3
:1055A00006E00A20FFF7E1FC18F11408C3E7002029
:1055B000BDE8F28F2DE9F84F04000D005FF0000800
:1055C00040462900C0B2C9B2884239D2B5EB0800C2
:1055D0000100C9B2152901DB142700E00700B94614
:1055E0005FFA89F94046C0B204EB000ADFF824BA3A
:1055F0004A465146584601F091FBDFF81C0A0770F5
:105600004046C0B2204400903B00DBB20022DFF8ED
:10561000C4080188DFF8EC09008801F0FFFA0600F1
:105620003000C0B2002805D0DFF8E00B01F0CAFB63
:10563000472006E01420FFF798FC18F11408BFE794
:105640000020BDE8F28F80B5DFF8BC090090DFF8DC
:10565000BC0903780022DFF880080188DFF8A4097C
:10566000008801F0DBFA01000800C0B2002801D078
:10567000472000E0002002BD1CB5DFF8980900902B
:10568000DFF8940903780022DFF848080188DFF882
:105690007409008801F0C2FA04002000C0B200289A
:1056A0001DD0DFF86C0B0068800512D5DFF85C1B9D
:1056B000DFF8600B01F0ACFBDFF85C1B0860DFF883
:1056C000580B00680100C9B2DFF8480BFFF72DFF47
:1056D00003E0DFF8380B01F075FB472000E0002005
:1056E00016BD38B58AB005241B208DF81800C520DA
:1056F0008DF81900D5208DF81A00A5208DF81B0013
:1057000002208DF81C0000208DF81D00B4208DF8BB
:105710001E009A208DF81F00E1208DF82000112036
:105720008DF8210001208DF8220000208DF8230043
:1057300000208DF8240000208DF8250000208DF831
:10574000260000208DF82700DFF8DC0A00900320F7
:1057500000FB04F0401C0300DBB2012206A902207A
:1057600001F070F905002800C0B2002840F09E81C9
:105770001B208DF81800C5208DF81900D5208DF854
:105780001A00A5208DF81B0002208DF81C000020B7
:105790008DF81D0036208DF81E00AC208DF81F00FE
:1057A000E1208DF8200011208DF8210001208DF8D6
:1057B000220000208DF8230000208DF82400002016
:1057C0008DF8250000208DF8260000208DF8270098
:1057D0009DF8260050F005008DF82600DFF84C0AF1
:1057E0000078001DDFF8441A08709DF8260050F07C
:1057F00008008DF82600DFF8340A0078801CDFF8F6
:105800002C1A08709DF8260050F010008DF8260024
:10581000DFF8180A0078001DDFF8101A0870DFF8AA
:10582000100A05900020049010200390042002909C
:1058300000200190122000900C2306AA0221DFF81C
:10584000E809008801F060F905002800C0B20028CE
:1058500040F02C811B208DF81800C5208DF8190010
:10586000D5208DF81A00A5208DF81B0002208DF898
:105870001C0000208DF81D0036208DF81E00AC2085
:105880008DF81F00E1208DF8200011208DF82100F7
:1058900001208DF8220000208DF8230000208DF8D3
:1058A000240000208DF82500E0208DF8260000203F
:1058B0008DF82700DFF87C09059000200490102067
:1058C00003900420029000200190102000901423E7
:1058D00006AA0221DFF85009008801F015F9050039
:1058E0002800C0B2002840F0E1801B208DF818008D
:1058F000C5208DF81900D5208DF81A00A5208DF847
:105900001B0002208DF81C0000208DF81D003620A1
:105910008DF81E00AC208DF81F00E1208DF82000CE
:1059200011208DF8210001208DF8220000208DF833
:10593000230000208DF8240004208DF8250000208D
:105940008DF8260000208DF82700DFF8D808059094
:105950000020049010200390042002900020019069
:1059600012200090042306AA0221DFF8BC08008858
:1059700001F0CAF805002800C0B2002840F0968067
:105980001B208DF81800C5208DF81900D5208DF842
:105990001A00A5208DF81B0002208DF81C000020A5
:1059A0008DF81D0036208DF81E00AC208DF81F00EC
:1059B000E1208DF8200011208DF8210001208DF8C4
:1059C000220000208DF8230000208DF82400002004
:1059D0008DF8250000208DF8260020208DF8270066
:1059E000DFF8540805900020049010200390042054
:1059F00002900020019012200090032306AA0221A9
:105A0000DFF82408008801F07FF805002800C0B204
:105A100000284BD11B208DF81800C5208DF81900E7
:105A2000D5208DF81A00A5208DF81B0002208DF8D6
:105A30001C0000208DF81D0036208DF81E00AC20C3
:105A40008DF81F00E1208DF8200011208DF8210035
:105A500001208DF8220000208DF8230000208DF811
:105A6000240080208DF8250000208DF826000020DD
:105A70008DF82700DFF8140B05900020049010200B
:105A8000039001200290002001900C200090072339
:105A900006AA0221DFF89007008801F035F805001A
:105AA0002800C0B2002801D1002000E047200BB040
:105AB00030BDF8B586B004000D001600FEF79AFF61
:105AC000C0088DF80400FEF795FFC00A8DF80500A8
:105AD00020688DF80600206800128DF807006068C5
